:100000000C9434000C9451000C9451000C94510049
:100010000C9451000C94F6010C9451000C94510076
:100020000C9451000C9451000C9451000C9451000C
:100030000C9451000C9451000C9451000C945100FC
:100040000C9451000C9451000C9411040C94510028
:100050000C9451000C942D010C9451000C945100FF
:100060000C9451000C94510011241FBECFEFD8E026
:10007000DEBFCDBF11E0A0E0B1E0EEEFF9E002C0DD
:1000800005900D92A430B107D9F721E0A4E0B1E0CA
:1000900001C01D92AF31B207E1F70E94D1000C946C
:1000A000FD040C94000084B1866084B98AB1886232
:1000B0008AB984B1896384B98AB180648AB98AB102
:1000C0008B7F8AB98AB18F7E8AB98AB18F778AB9D4
:1000D0008BB184698BB9E8E6F0E08081846080832D
:1000E000EDE6F0E08081846980837894089583E26E
:1000F0008093B0008FE08093B1008CE98093B300CF
:10010000089582EA809380008DE1809381008CE9DC
:1001100090E090938700809386000895E1E6F0E0F8
:1001200080E8808381E0808383E284BD8DE085BDAB
:100130008CE987BD0895F894ECE7F0E08081806455
:1001400080838081836080838FE880937A007894B5
:1001500008959093C5008093C400E1ECF0E08081A5
:1001600088698083E2ECF0E0808186608083089576
:10017000EAE7F0E0808180648083089590938900AD
:1001800080938800089590938B0080938A0008954F
:1001900088BD08958093B400089503960E94A90431
:1001A00008950E9453000E948E000E9481000E94C8
:1001B000770083E390E00E94A9000E949B000E94C8
:1001C000B80080910001813039F485B18F7D85B907
:1001D00085B18F7E85B91AC0823039F485B18062CD
:1001E00085B985B18F7E85B911C0833039F485B169
:1001F0008F7D85B985B1806185B908C0843031F4BF
:1002000085B1806285B985B1806185B98091010130
:10021000813051F48BB180648BB985B1877F85B90A
:1002200085B18E7F85B9CDCF823051F48BB18F7B74
:100230008BB985B1816085B985B1877F85B9C1CF1B
:10024000833009F0BECF85B18E7F85B98BB18F7BAE
:100250008BB985B1886085B9B4CF1F920F920FB664
:100260000F9211242F933F934F935F936F937F933C
:100270008F939F93AF93BF93EF93FF93809101016F
:10028000813009F0A0C080910201833041F5ECE794
:10029000F0E080818460808380818E7F8083808194
:1002A0008D7F808384E080930201209178003091DB
:1002B000790030931501209314014FE0429FC00153
:1002C000439F900D11246FEF73E00E94950484E02A
:1002D000860F80930D0190E00E94BE0074C08430B0
:1002E00029F5ECE7F0E080818560808380818D7F57
:1002F000808385E08093020120917800309179001D
:1003000030931301209312014FE0429FC001439F9D
:10031000900D11246FEF73E00E94950484E0860F26
:1003200080930D0190E00E94C3004DC0853029F5F7
:10033000ECE7F0E080818660808380818E7F80831F
:1003400086E080930201209178003091790030930B
:100350001101209310014FE0429FC001439F900D77
:1003600011246FEF73E00E94950484E0860F809360
:100370000D0190E00E94C80026C0863021F5ECE710
:10038000F0E080818360808380818B7F808383E045
:1003900080930201209178003091790030930F0111
:1003A00020930E014FE0429FC001439F900D112406
:1003B0006FEF73E00E94950484E0860F80930D0137
:1003C00090E00E94CA000E94B800FF91EF91BF9197
:1003D000AF919F918F917F916F915F914F913F91DD
:1003E0002F910F900FBE0F901F9018951F920F9294
:1003F0000FB60F9211241F932F933F934F935F9348
:100400006F937F938F939F93AF93BF93CF93DF931C
:10041000EF93FF934C9972C0809101018F5F80939D
:100420000101843019F481E0809301018091010180
:10043000823009F063C081E0809300018EE190E09A
:100440000E94CF04EC0190931501809314018CE17C
:1004500090E00E94CF0490931301809312018AE1EF
:1004600090E00E94CF04909311018093100188E1E5
:1004700090E00E94CF0490930F0180930E011FE043
:100480001C9FC0011D9F900D1124CFEFD3E0BE0132
:100490000E949504CB0104960E94BE002091120197
:1004A00030911301129FC001139F900D1124BE01C2
:1004B0000E949504CB0104960E94C3002091100174
:1004C00030911101129FC001139F900D1124BE01A4
:1004D0000E949504CB0104960E94C80020910E0151
:1004E00030910F01129FC001139F900D1124BE0186
:1004F0000E949504CB0104960E94CA004F99E4C063
:10050000809100018F5F80930001853019F481E0B4
:100510008093000180910101823009F0D5C0809163
:100520000001823061F118F4813041F08AC08330DB
:1005300009F446C0843009F464C083C08EE190E0C1
:100540000E94CF0490931501809314018CE190E0F8
:100550000E94CF0490931301809312018AE190E0EE
:100560000E94CF04909311018093100188E190E0E4
:100570000E94CF0490930F0180930E0162C086E128
:1005800090E00E94CF04909315018093140184E1C0
:1005900090E00E94CF04909313018093120182E1B6
:1005A00090E00E94CF04909311018093100180E1AC
:1005B00090E00E94CF0490930F0180930E0141C000
:1005C0008EE090E00E94CF04909315018093140177
:1005D0008CE090E00E94CF0490931301809312016D
:1005E0008AE090E00E94CF04909311018093100163
:1005F00088E090E00E94CF0490930F0180930E0159
:1006000020C086E090E00E94CF0490931501809373
:10061000140184E090E00E94CF0490931301809332
:10062000120182E090E00E94CF0490931101809328
:10063000100180E090E00E94CF0490930F0180931E
:100640000E0120911401309115011FE0129FC0018D
:10065000139F900D1124CFEFD3E0BE010E949504AB
:10066000CB0104960E94BE0020911201309113012B
:10067000129FC001139F900D1124BE010E9495048A
:10068000CB0104960E94C30020911001309111010A
:10069000129FC001139F900D1124BE010E9495046A
:1006A000CB0104960E94C80020910E0130910F01E9
:1006B000129FC001139F900D1124BE010E9495044A
:1006C000CB0104960E94CA004A9997C0809101010B
:1006D000813009F092C080910001823061F118F4FC
:1006E000813041F08AC0833009F446C0843009F477
:1006F00064C083C060911401709115018EE190E097
:100700000E94D50460911201709113018CE190E078
:100710000E94D50460911001709111018AE190E06E
:100720000E94D50460910E0170910F0188E190E064
:100730000E94D50462C0609114017091150186E198
:1007400090E00E94D504609112017091130184E140
:1007500090E00E94D504609110017091110182E136
:1007600090E00E94D50460910E0170910F0180E12C
:1007700090E00E94D50441C0609114017091150170
:100780008EE090E00E94D5046091120170911301F7
:100790008CE090E00E94D5046091100170911101ED
:1007A0008AE090E00E94D50460910E0170910F01E3
:1007B00088E090E00E94D50420C0609114017091FF
:1007C000150186E090E00E94D504609112017091BD
:1007D000130184E090E00E94D504609110017091B3
:1007E000110182E090E00E94D50460910E017091A9
:1007F0000F0180E090E00E94D504FF91EF91DF911E
:10080000CF91BF91AF919F918F917F916F915F91A8
:100810004F913F912F911F910F900FBE0F901F90FE
:1008200018951F920F920FB60F9211242F933F939A
:100830004F935F936F937F938F939F93AF93BF93E8
:10084000EF93FF9380910101833009F05DC08091A7
:10085000C600833209F04EC0E0910C01F0E0EA5E80
:10086000FE4F108210920C01809116018D3479F4A4
:1008700090911701913359F486E191E00E94CD00E7
:1008800090930B0180930A010E94BE003DC08D34FD
:1008900079F490911701923359F486E191E00E9426
:1008A000CD0090930901809308010E94C3002CC0E1
:1008B0008D3479F490911701933359F486E191E0E6
:1008C0000E94CD0090930701809306010E94C8000A
:1008D0001BC08D34C9F4809117018433A9F486E1DB
:1008E00091E00E94CD0090930501809304010E9445
:1008F000CA000AC0E0910C0191E09E0F90930C0198
:10090000F0E0EA5EFE4F8083FF91EF91BF91AF91DF
:100910009F918F917F916F915F914F913F912F9117
:100920000F900FBE0F901F901895AA1BBB1B51E193
:1009300007C0AA1FBB1FA617B70710F0A61BB70B4F
:10094000881F991F5A95A9F780959095BC01CD01F4
:100950000895FC0188279927E89421912032E9F332
:10096000293010F02E30C8F32B3241F02D3239F4FB
:10097000689404C00E94C704820F911D21912053E6
:100980002A30C0F31EF4909581959F4F08957AE028
:10099000979F902D879F802D910D11240895A8E198
:1009A000B0E042E050E00C94DD040196272F0E9455
:1009B000EC040C94EB04DC01CB01FC01F999FECFB3
:1009C00006C0F2BDE1BDF89A319600B40D924150D7
:1009D0005040B8F70895262FF999FECF92BD81BDFA
:1009E000F89A019700B4021639F01FBA20BD0FB66D
:0E09F000F894FA9AF99A0FBE0895F894FFCF82
:0409FE0001010300F0
:00000001FF
