S01A00004C61626F7261746F72696F5F30355F50574D2E7372656375
S11300000C9434000C943E000C943E000C943E007E
S11300100C943E000C943E000C943E000C943E0064
S11300200C943E000C943E000C943E000C943E0054
S11300300C943E000C943E000C943E000C943E0044
S11300400C943E000C943E000C943E000C943E0034
S11300500C943E000C943E000C943E000C943E0024
S11300600C943E000C943E0011241FBECFEFD8E048
S1130070DEBFCDBF0E9459000C9422010C940000F5
S113008087E880937A0080E480937C0008958770E9
S1130090806480937C00EAE7F0E080818064808360
S11300A080917A0086FDFCCF809178009091790050
S11300B008950E94AE000E94400084B1886084B913
S11300C083E88093B00084E08093B10083E00E94D1
S11300D047008C0184E00E944700EC0185E00E9407
S11300E047005C019801A0EDB7E00E94F1000F2EDB
S11300F0CC24CA94F3E0DF2EE12CF12CF02DA701DF
S113010096010E94D20089010153184F9E01A0ED6F
S1130110B7E00E94F100A70196010E94D200E90114
S1130120C153D84F9501AFEFB0E00E94F100A70191
S113013096010E94D200F22EC8010E94C800CE018E
S11301400E94CD00F092B3002FEF89EF90E0215090
S113015080409040E1F700C00000B8CF84B18660D1
S113016084B982EA8093800082E1809381008FE3E6
S11301709CE9909387008093860087EB9BE09093A3
S113018089008093880090938B0080938A0008955F
S11301909093890080938800089590938B008093B6
S11301A08A000895052E97FB1EF400940E94E9002E
S11301B057FD07D00E94000107FC03D04EF40C94B5
S11301C0E90050954095309521953F4F4F4F5F4F33
S11301D0089590958095709561957F4F8F4F9F4FAF
S11301E00895A29FB001B39FC001A39F700D811D0C
S11301F01124911DB29F700D811D1124911D08952C
S1130200A1E21A2EAA1BBB1BFD010DC0AA1FBB1F16
S1130210EE1FFF1FA217B307E407F50720F0A21B88
S1130220B30BE40BF50B661F771F881F991F1A94F5
S113023069F760957095809590959B01AC01BD011F
S10B0240CF010895F894FFCFEB
S9030000FC
