S01A00004C61626F7261746F72696F5F30355F50574D2E7372656375
S11300000C9434000C9446000C9446000C94460066
S11300100C9446000C9446000C9446000C94460044
S11300200C9446000C9446000C9446000C94460034
S11300300C9446000C9446000C9446000C94460024
S11300400C9446000C9446000C9446000C94460014
S11300500C9446000C9446000C9446000C94460004
S11300600C9446000C94460011241FBECFEFD8E038
S1130070DEBFCDBF21E0A0E0B1E001C01D92A230FF
S1130080B207E1F70E94F6000C948F030C94000071
S113009087E880937A0008958770806480937C0059
S11300A00895EAE7F0E080818064808380917A009B
S11300B086FDFCCF8091780090917900089584B1F9
S11300C0886084B983E88093B00084E08093B100B1
S11300D01092B30008958093B3000895CF92DF92F5
S11300E0EF92FF92BC0180E090E00E9411022DEC9F
S11300F03CEC4CE45EE30E949F026B017C01609146
S113010000017091010180E090E00E9411022DEC49
S11301103CEC4CE45FE30E949F029B01AC01C701ED
S1130120B6010E9476010E94E2017093010160937E
S11301300001CB01FF90EF90DF90CF9008958F9254
S11301409F92AF92BF92CF92DF92EF92FF920F9362
S1130150CF93B82EC0E0C12CD12C760110C08B2DCA
S11301600E944C000E945100C80ED91EE11CF11CD3
S113017087EC90E00197F1F700C00000CF5FC53035
S113018070F3C701B6012DEC3CEC4CEC5CEC0E9426
S11301903D0300E20E946A03822E932EA42EB52E04
S11301A0D501C401B695A79597958795B695A7955A
S11301B097958795CF910F91FF90EF90DF90CF9017
S11301C0BF90AF909F908F9008959C01AFEFB0E0E7
S11301D00E942E0361507E4F8F4F9F4F2FEF33E0CD
S11301E040E050E00E940C03822F08950E944800D2
S11301F00E9451010E945F00D0E083E00E949F00B2
S11302000E946E000E94E500C82F90E08D1B9109AA
S11302109C0122F422273327281B390B2330310574
S113022024F4CC2311F0CF3F21F48C2F0E946B00D7
S1130230DC2F85E00E944C000E9451009C01AAEF33
S1130240B0E00E942E030F2ECC24CA94F3E0DF2EDC
S1130250E12CF12CF02DA70196010E940C03C90199
S113026086509F4F0E946B0184E00E944C000E94C4
S113027051009C01AAEFB0E00E942E03A701960151
S11302800E940C03C90186509F4F0E9470012FEFFA
S113029080E792E0215080409040E1F700C00000E8
S11302A0ACCF84B1866084B982EA809380008BE10C
S11302B08093810087E893E1909387008093860080
S11302C08AEF90E0909389008093880090938B004C
S11302D080938A00089590938900809388000895FC
S11302E090938B0080938A0008955058BB27AA27C7
S11302F00E948D010C9465020E94570238F00E94FE
S11303005E0220F039F49F3F19F426F40C94540251
S11303100EF4E095E7FB0C944E02E92F0E9476025E
S113032058F3BA17620773078407950720F079F426
S1130330A6F50C9498020EF4E0950B2EBA2FA02D7E
S11303400B01B90190010C01CA01A0011124FF277E
S1130350591B99F0593F50F4503E68F11A16F04079
S1130360A22F232F342F4427585FF3CF4695379578
S11303702795A795F0405395C9F77EF41F16BA0B3D
S1130380620B730B840BBAF09150A1F0FF0FBB1FEB
S1130390661F771F881FC2F70EC0BA0F621F731F34
S11303A0841F48F4879577956795B795F7959E3F91
S11303B008F0B0CF9395880F08F09927EE0F979522
S11303C0879508950E947E0288F09F5798F0B92F70
S11303D09927B751B0F0E1F0660F771F881F991F76
S11303E01AF0BA95C9F714C0B13091F00E9498027E
S11303F0B1E008950C949802672F782F8827B85F8E
S113040039F0B93FCCF3869577956795B395D9F7CD
S11304103EF490958095709561957F4F8F4F9F4FD7
S11304200895E89409C097FB3EF4909580957095E3
S113043061957F4F8F4F9F4F9923A9F0F92F96E92C
S1130440BB279395F695879577956795B795F111A1
S1130450F8CFFAF4BB0F11F460FF1BC06F5F7F4F3E
S11304608F4F9F4F16C0882311F096E911C0772350
S113047021F09EE8872F762F05C0662371F096E859
S1130480862F70E060E02AF09A95660F771F881F28
S1130490DAF7880F9695879597F9089597F99F67E6
S11304A080E870E060E008959FEF80EC08950024F8
S11304B00A941616170618060906089500240A94C5
S11304C012161306140605060895092E0394000C4B
S11304D011F4882352F0BB0F40F4BF2B11F460FFDA
S11304E004C06F5F7F4F8F4F9F4F089557FD905803
S11304F0440F551F59F05F3F71F04795880F97FBE4
S1130500991F61F09F3F79F087950895121613069D
S11305101406551FF2CF4695F1DF08C016161706CC
S11305201806991FF1CF8695710561050894089501
S1130530E894BB2766277727CB0197F908950E9493
S1130540B2020C9465020E94570238F00E945E02C7
S113055020F0952311F00C944E020C9454021124B3
S11305600C9499020E94760270F3959FC1F3950F43
S113057050E0551F629FF001729FBB27F00DB11D23
S1130580639FAA27F00DB11DAA1F649F6627B00DB3
S1130590A11D661F829F2227B00DA11D621F739F9C
S11305A0B00DA11D621F839FA00D611D221F749FAA
S11305B03327A00D611D231F849F600D211D822FF1
S11305C0762F6A2F11249F5750409AF0F1F0882318
S11305D04AF0EE0FFF1FBB1F661F771F881F915045
S11305E05040A9F79E3F510580F00C944E020C94A4
S11305F099025F3FE4F3983ED4F386957795679527
S1130600B795F795E7959F5FC1F7FE2B880F911D6E
S11306109695879597F90895A1E21A2EAA1BBB1BFC
S1130620FD010DC0AA1FBB1FEE1FFF1FA217B307BA
S1130630E407F50720F0A21BB30BE40BF50B661FD0
S1130640771F881F991F1A9469F760957095809594
S113065090959B01AC01BD01CF010895A29FB0010B
S1130660B39FC001A39F700D811D1124911DB29FE2
S1130670700D811D1124911D0895E894DF93CF938B
S1130680FC01DB010E942E037F936F93E9019A0121
S1130690AC01BF93AF933F932F93DF010E942E03CE
S11306A026F46C1B7D0B820B930B9E01EB01FC016A
S11306B00E948603AF91BF912F913F910E948603C0
S11306C0BE01CF01F9012F913F91CF91DF910895A0
S11306D097FB10F8169400080F93083098F0085010
S11306E0232F342F452F562F672F782F892F902DA6
S11306F0F4CF059497958795779567955795479582
S1130700379527950A95AAF70F9108950E942E030D
S1130710460F571FC81FD91F08F431960895F8943F
S1050720FFCF05
S9030000FC
