S0160000456A656D706C6F5F30315F4144432E737265635B
S11300000C9434000C943E000C943E000C943E007E
S11300100C943E000C943E000C943E000C943E0064
S11300200C943E000C943E000C943E000C943E0054
S11300300C943E000C943E000C943E000C943E0044
S11300400C943E000C943E000C943E000C943E0034
S11300500C943E000C9462000C943E000C943E0000
S11300600C943E000C943E0011241FBECFEFD8E048
S1130070DEBFCDBF0E945F000C947A000C94000098
S1130080ECE7F0E0108280818F7780838081866640
S11300908083EAE7F0E0108280818B688083089592
S11300A0F894E1E6F0E080E8808384E080838FEFD9
S11300B08AB91092C1000E944000789408950E9469
S11300C05000FFCF1F920F920FB60F9211248F93FF
S11300D0EF93FF93809179008BB9EAE7F0E0808198
S11300E080648083FF91EF918F910F900FBE0F90EA
S10B00F01F901895F894FFCF4E
S9030000FC
