:020000020000FC
:020000002DC011
:020040003AC0C4
:1000500071C0C0F9A4B0999282F880900FEF0DBFE3
:1000600008E00EBF112400E000930001009301019D
:10007000009302010FE004B90FEF0AB903E008B9D9
:1000800002E00093680003E000936C0001E000933D
:100090006E0001E00093150000E80093610004E0A9
:1000A0000093610003E005BD0FE606BD20E040E0DF
:1000B00050E07894FFCF0F931F932F934F935F934C
:1000C0008F939F93EF93FF93A89A06E106BD239524
:1000D0002E31F9F420E08091010183958A3049F4B2
:1000E00080E0909102019395963009F490E090930E
:1000F000020180930101E9E2F0E090910101E90F32
:10010000F11D1591E9E2F0E090910201E90FF11D76
:10011000659101E05027552311F06BB901C01BB95F
:10012000FF91EF919F918F915F914F912F911F912F
:100130000F9118950F931F9306B1102F1170103067
:1001400059F41091000113950FE010231093000152
:1001500005B1007F012B05B906B1102F12701030C8
:1001600069F410910001111511F41FE001C01A95F6
:100170001093000105B1007F012B05B91F910F916C
:020180001895D0
:00000001FF
