:100000000C9434000C9451000C9451000C94510049
:100010000C9451000C9451000C9451000C9451001C
:100020000C9451000C9451000C9451000C9451000C
:100030000C9451000C9451000C9451000C945100FC
:100040000C9451000C9451000C9451000C945100EC
:100050000C9451000C94EF000C9451000C9451003E
:100060000C9451000C94510011241FBECFEFD8E026
:10007000DEBFCDBF11E0A0E0B1E0E4E1F2E002C0FC
:1000800005900D92A031B107D9F721E0A0E1B1E0D0
:1000900001C01D92A231B207E1F70E94C7000C9483
:1000A00008010C94000023B130E0082E02C0359501
:1000B00027950A94E2F720FD15C02FE738E341E0C9
:1000C000215030404040E1F700C0000023B130E053
:1000D000A90102C0559547958A95E2F740FD04C0F5
:1000E00081E0089580E0089580E00895ECE7F0E075
:1000F0001082808186668083EAE7F0E0108280814A
:100100008B6880838081806480830895F8948FEF6A
:100110008AB91BB887B918B884B184B984B18C6224
:1001200084B91092C100E1E6F0E080E8808380812C
:10013000846080830E94760078940895E091100195
:10014000AE2FA295AF70EF7085B1837F85B9B0E017
:10015000A050BF4F8C9188B985B1846085B98FE17B
:100160009EE40197F1F700C0000085B1837F85B957
:10017000F0E0E050FF4F808188B985B1886085B993
:100180008FE19EE40197F1F700C0000008950E94FE
:10019000860080E00E945300882331F08091110195
:1001A0008F5F809311018BB981E00E9453008823F7
:1001B00031F0809111018150809311018BB99091A0
:1001C000100180911101891720F485B1806285B9F1
:1001D00003C085B18F7D85B90E949E00DACF1F9242
:1001E0000F920FB60F9211248F93EF93FF9380918C
:1001F000790080931001EAE7F0E0808180648083D9
:10020000FF91EF918F910F900FBE0F901F90189557
:04021000F894FFCF90
:100214003F065B4F666D7D077F6F777C395E797132
:00000001FF
